:020000006C2A68
:06000600000000000800EC
:10000C000F3083120313FC004730FD00FD0B0C284E
:0A001C00FC0B0C2800000000080097
:0E002600213083120313FD00FD0B1728080084
:1000340083160313ED1B21288312881123288312AE
:10004400881583166D1B2928831208112B28831207
:1000540008158316ED1A3128831288103328831269
:10006400881483166D1A3928831208103B288312CA
:1000740008148316541841288312881643288312BF
:1000840088120816032008128316ED194C288312CF
:1000940088114E288312881583166D1954288312EB
:1000A40008115628831208158316ED185C2883124C
:1000B40088105E288312881483166D1864288312AE
:1000C4000810662883120814831654186C288312A7
:1000D40088166E28831288120816032008128316C5
:0C00E400541C7628062077281320080002
:1000F00083120313F801F9011030FC00710DF80DA3
:10010000F90D7408F8027508031C750FF90203183D
:1001100090287408F80775080318750FF90703107D
:0A012000F00DF10DFC0B7E28080025
:10012A0083160313E801EA01EB011030EC000430F6
:10013A006B020318C328F0308312860083166C09F9
:10014A008600032003200F3083120605F000700892
:10015A008316E90070080319BD286A08E8006908CF
:10016A000319BB28E90CE913E80AB4280430EB00A8
:10017A00EC0D6C100430EA07EB0A9C286808F000C2
:02018A0008006B
:10018C008316031354106808ED001A2083165414B8
:02019C00080059
:10019E00063083120313FD00FD0BD3280000080068
:0E01AE00831603134B088A004A0882000800DB
:1001BC0083160313EB0105306B020318EC286B0854
:1001CC006A07840020308000EB0AE1286B086A077C
:1001DC0084008001EB036B086A07EC000A30F40022
:1001EC00F5016808F0006908F10078207808F00043
:1001FC007908F1003030F00783166C088400700821
:10020C0080000A30F400F5016808F0006908F1007C
:10021C00782070088316E8007108E9000030710638
:10022C00031D1A2900307006031D1D291F29EB031D
:04023C00F12808009D
:1002400083160313E401E5015F08E6006008E70098
:1002500080306006F00080307002031D31290030CC
:100260005F0203183F290130E4000030E5005F0819
:10027000003CE6006008031C013EE701E702660857
:10028000E8006708E9006108EA00DE200630E200C5
:100290000030E3006308003C031D50296208003C65
:1002A00003186B2962086107F20001306202F00056
:1002B0000030031C013E6302F100700861078400F6
:1002C0000008F00072088400700880000130E2022B
:1002D000031CE3034A29610884002030800064087D
:1002E000650403198929E201E301620861078400BA
:1002F0000008203A031D8029E20A0319E30A752940
:100300000130E202031CE3036208610784002D3020
:040310008000080061
:1003140095207008DF000F3083120605F0000319E2
:0E0324009529CF208D2983165F08F000080070
:1003320083160313E00160085F07840000080319B5
:10034200AA2960085F0784000008E800C620E00AC6
:040352009C290800DA
:10035600831603135F08840000080319BF295F088A
:1003660084000008F1006008840071080006031D7F
:10037600BF29DF0AE00AAB295F0884000008F00005
:10038600600884000008F002F101031CF103080074
:10039600D7208A110A128000840ACA0A0319CB0AD6
:0803A600F003031DCB29080040
:0A03AE00FF308316031386000800D9
:1003B800EE29803083160313DF00012AC030DF00E6
:1003C800012A9430DF00012AD430DF00012A80306E
:1003D800DF00012A831603135F08013A0319DD2998
:1003E8005F08023A0319E2295F08033A0319E5296D
:1003F8005F08043A0319E829EB296003F0005F0855
:10040800F0077008DF007008ED001A2083165410FA
:10041800E201620861078400000803191B2A6208C8
:10042800610784000008E800C620E20A0D2A541477
:020438000800BA
:10043A0083160313081288120810881008118811ED
:10044A0083120812881288110811881008100620D1
:10045A00062006208814081408160320081206200D
:10046A000816032008120620081603200812062080
:10047A00081008160320081206200816032008127E
:10048A0088108815081603200812062088110814F7
:10049A00081603200812081008160320081206205E
:1004AA00081603200812081408160320081206204A
:1004BA00081008160320081288150815881408144D
:0E04CA0008160320081206208316541408009A
:1004D8007E2483160313D30187018312870107152E
:1004E8001D22D7210C30ED001A2001308316ED00B3
:1004F8001A2001308316DF000130E0005030E1009F
:10050800DC210230FB000430FC00BA30FD00FD0B9A
:100518008B2AFC0B8B2AFB0B8B2A00000130DF0097
:100528000130E0002230E100DC210230DF00013040
:10053800E0004330E100DC210230FB000430FC0025
:10054800BA30FD00FD0BA62AFC0BA62AFB0BA62A37
:1005580000000130ED001A2001308316ED001A204A
:1005680001308316DF000130E0003230E100DC2189
:10057800CE01CF01D001D101D2010230DF0001301C
:10058800E0004E30E100DC21CC01CD0180304D0689
:10059800F00080307002031DD32A05304C02031886
:1005A8006C2B4C08CE3E84000008003A031DE52A57
:1005B8004C08CE3EDE008A215E0884007008800068
:1005C800D52A4C08CE3E84000008103A031DED2AB7
:1005D800EF2B2030DF0099214C08CE3E8400000824
:1005E800013A031DFC2A4C08CE3E840037308000B7
:1005F8004C08CE3E84000008023A031D082B4C0824
:10060800CE3E8400383080004C08CE3E840000087E
:10061800033A031D142B4C08CE3E84003930800069
:100628004C08CE3E84000008053A031D202B4C08D8
:10063800CE3E8400343080004C08CE3E8400000852
:10064800063A031D2C2B4C08CE3E84003530800022
:100658004C08CE3E84000008073A031D382B4C088E
:10066800CE3E8400363080004C08CE3E8400000820
:10067800093A031D442B4C08CE3E840031308000DB
:100688004C08CE3E840000080A3A031D502B4C0843
:10069800CE3E8400323080004C08CE3E84000008F4
:1006A8000B3A031D5C2B4C08CE3E8400333080008F
:1006B8004C08CE3E840000080E3A031D682B4C08F7
:1006C800CE3E840030308000CC0A0319CD0ACA2AF5
:1006D8000130ED001A2001308316DF000130E00000
:1006E800CE30E100DC210230FB000430FC00BA30DF
:1006F800FD00FD0B7D2BFC0B7D2BFB0B7D2B0000E8
:10070800CE30DF00C430E000AB2100307106031D9D
:100718008F2B00307006031DB12B0130ED001A201D
:1007280001308316DF000230E000BC30E100DC213C
:100738000230DF000330E0006930E100DC210230E4
:10074800FB000430FC00BA30FD00FD0BA92BFC0BAC
:10075800A92BFB0BA92B0000B02AAD0A0319AE0A7E
:1007680000302E06031DBA2B03302D06031DBF2BA8
:10077800AD01AE01FA2B0130ED001A2001308316CD
:10078800DF000130E0005B30E100DC210230DF00F7
:100798000130E000A030E100DC212D08033CDF003F
:1007A8002E08031C013EE001E002D530E1002021C3
:1007B8005C08D600D530DF0099210230FB000430F8
:1007C800FC00BA30FD00FD0BE72BFC0BE72BFB0B05
:1007D800E72B0000B02A0130ED001A200130831603
:1007E800DF000130E000B130E100DC21AF30DF0094
:0407F8009921FD2B1B
:1008FC0020308400493083120313F0000330831638
:10090C00CA000430CB00CB21A03084000D30831200
:10091C000313F00069308316CA000430CB00CB21DE
:10092C0069308400073083120313F000763083168D
:10093C00CA000430CB00CB21AD3084001D308312B3
:10094C000313F0004C308316CA000430CB00CB21CB
:02095C00080091
:040806002A3400345C
:10080A0054346F3420345334773469347434633451
:10081A00683420344D346F346434653473340034AE
:10082A0045346E34743465347234203459346F3438
:10083A007534723420344B346534793420343A3484
:02084A00003478
:10084C00203420345034723465347334733420348F
:06085C002B3420340034AF
:04086200203400340A
:10086600573445344C3443344F344D3445342034B6
:060876002134213400349E
:10087C00383461346C3461347434203479346134F8
:0C088C002034333461347234733400348F
:0408980000340034F4
:04089C0032340034BE
:1008A000413444344D3449344E3420344D344F3483
:0608B0004434453400341D
:1008B600573445344C3443344F344D344534003486
:0C08C600313432343334343435340034EF
:1008D2005434723469346534733420344C3465349E
:0A08E200663474343A3420340034D4
:0E08EC004D344F34333447345A3441340034E1
:02400E004A2F37
:00000001FF
